:100000000C9472000C94BC140C94B8130C94310E24
:100010000C94DC0F0C94BC140C94BC140C94840F42
:100020000C94BC140C94000F0C942C0F0C94580FCF
:100030000C94BC140C94BC140C94BC140C94BC1400
:100040000C94BC140C94BC140C94BC140C94BC14F0
:100050000C94BC140C94BC140C94A9130C94B00F05
:100060000C94BC140C94BC140C9408100C94311017
:100070000C94D4120C94AA0C0C94BC140C94BC14C4
:100080000C94BC140C94BC140C94F10C0C94BC1483
:100090000C94BC140C94BC140C94BC140C94BC14A0
:1000A000280028E18028E129070029982907290F3D
:1000B00080290F292F0029BE292F29438029432970
:1000C0004B0029DE294B2953802953295B0029E65F
:1000D000295B2962802962296300017329632964ED
:1000E0000029EE0011241FBECFEFCDBFDFE3DEBF3E
:1000F000E0EAF0E040E017C0B591A5913591259177
:10010000059107FD0CC095918591EF01F92FE82F1E
:1001100005900D92A217B307D9F7FE0104C01D92F6
:10012000A217B307E1F7E33EF40731F70E94BA00E4
:080130000C949A00F894FFCF33
:1001380053756E4D6F6E5475655765645468754692
:100148007269536174004A616E4665624D6172411D
:1001580070724D61794A756E4A756C417567536561
:0B016800704F63744E6F7644656300B7
:01017300018A
:10017400EF92FF920F931F93CF93DF93CDB7DEB728
:100184006197CDBFDEBF0E94C20A809104288823F4
:1001940009F457C080E491E0DC0118964D915C911C
:1001A400199780E491E0FC01828593859C01ABEA78
:1001B400BAEA0E94C713969587954817590708F01D
:1001C40040C08CE198E20E9488138CE198E20E947E
:1001D40068148093692890936A2880916928909183
:1001E4006A28DC0112968C9197E68902912D1124DC
:1001F40095959595880F880BB92FB81B8B2F8093F5
:1002040020288091692890916A28FC01928187E6D0
:100214009802812D1124282F25952595892F880F43
:10022400880BF22FF81B8F2F880F282F220F220FF5
:10023400820FE92EE81A8E2D80932128109204282B
:100244005EC09091042881E08927882309F457C06F
:1002540080E491E0DC0118964D915C91199780E45B
:1002640091E0FC01828593859C01ABEABAEA0E9485
:10027400C713969587958417950708F040C08CE1BD
:1002840098E20E9488138CE198E20E94681480939B
:10029400692890936A288091692890916A28DC01E2
:1002A40011968C9197E68902912D11249595959537
:1002B400880F880BB92FB81B8B2F8093202880912F
:1002C400692890916A28FC01918187E69802812D22
:1002D4001124282F25952595892F880F880BF22F17
:1002E400F81B8F2F880F282F220F220F820FE92E41
:1002F400E81A8E2D8093212881E0809304281982A6
:100304002EC08981823060F481E190E02981222F1E
:1003140030E0205E374DD9012C91FC01208311C0BF
:1003240081E190E040915329509154292981222F51
:1003340030E022503109240F351FD9012C91FC01E2
:10034400208389E090E029812295207FDC012C9391
:100354008CEB92E00E94491289818F5F89838981A5
:10036400803178F2809161298F3008F460C080E494
:1003740091E0FC01808591859C0140E050E08091F2
:10038400222890912328A0912428B091252879012E
:100394008A01E81AF90A0A0B1B0BD801C701409716
:1003A400A105B1050CF443C08091532990915429BF
:1003B4009C0181EE98E28901081B190BC8018D8309
:1003C4008D81882321F481E08093622907C0809184
:1003D40061299D81981711F41092622980916229F4
:1003E400882351F080915329909154290196809348
:1003F40053299093542909C08091532990915429E9
:100404000197809353299093542980E491E0DC016F
:1004140018968D919C911997CC01A0E0B0E080933F
:10042400222890932328A0932428B09325288CE095
:1004340090E0FC018281882F90E082709927892BBB
:1004440009F185E694E020E8DC012C938EE090E04D
:10045400FC018081882F90E08C779927959587956A
:1004640095958795292F2F938F938CE996E5892F5E
:100474008F938CE996E58F930E94BE120F900F9094
:100484000F900F9080915529909156290E94580CF5
:10049400882309F49DC186EA96E5892F8F9386EA1D
:1004A40096E58F930E94BE120F900F90809155296C
:1004B40090915629292F2F938F930E94BE120F904B
:1004C4000F906AE976E585E599E20E9461128093CE
:1004D4005729909358298FEA96E5892F8F938FEAAD
:1004E40096E58F930E94BE120F900F90809157292A
:1004F40090915829292F2F938F930E94BE120F9009
:100504000F9089EB96E5892F8F9389EB96E58F936E
:100514000E94BE120F900F908091552990915629F8
:10052400292F2F938F930E94BE120F900F908091CA
:1005340057299091582960EC76E50E942414892B60
:1005440009F068C087EC96E5892F8F9387EC96E5D0
:100554008F930E94BE120F900F9080915529909115
:100564005629292F2F938F930E94BE120F900F901C
:100574001A821B821C8242C020915529309156292F
:100584008B819C81820F931FDC018C91882351F411
:100594009A8181E08927882329F081E08A838B81ED
:1005A400809361298A81882341F08B819C818F51BA
:1005B400974D2AE0FC01208312C0209155293091E7
:1005C40056298B819C81820F931FDC018C9120ED35
:1005D400280F8B819C818F51974DFC0120832091A2
:1005E4005529309156298B819C81820F931FDC0100
:1005F4001C928B819C8101968B839C838B819C8133
:1006040048970CF4B9CF81EE98E2809353299093E4
:100614005429D6C0809157299091582961ED76E5E7
:100624000E942414892B61F48091552990915629B4
:100634000E94B5148093672881E080936828C0C025
:1006440080915729909158296BED76E50E942414E6
:10065400892B09F044C06AE976E585E599E20E94B0
:100664006112FC018081882F90E08235910571F040
:100674008335910524F487349105E1F0A1C08335D5
:10068400910511F18935910559F09AC08091552948
:1006940090915629BC018FE099E20E94440990C0D0
:1006A4008091552990915629BC0186E199E20E94D6
:1006B400440986C08091552990915629BC018DE149
:1006C40099E20E9444097CC0809155299091562951
:1006D400BC0184E299E20E944409000071C0809147
:1006E40057299091582962EE76E50E942414892BAB
:1006F40091F42091552930915629CE010696B901DD
:100704000E9428138E819F81A885B985BC01CD01E3
:100714000E941A1455C080915729909158296AEE65
:1007240076E50E942414892B49F4809155299091EF
:1007340056290E94B5148093632942C08091572999
:100744009091582963EF76E50E942414892B19F4BB
:100754001092262835C080915729909158296EEF20
:1007640076E50E942414892B21F484E180932628C1
:1007740027C0809157299091582967E077E50E9416
:100784002414892B21F48EE18093262819C08091AA
:1007940057299091582961E177E50E942414892B07
:1007A40079F4CE010A960E948813CE010A960E941B
:1007B400FC11292F2F938F930E94BE120F900F903C
:1007C4001092272887E298E280935529909356291E
:1007D40080E491E0DC0118968D919C9119978F71BA
:1007E4009927892B81F580E00E949913809315281D
:1007F40090931628E0E0FAE080E09AE0DC01969617
:100804000D911C91979780911528909116289C0121
:10081400A1E8B0E80E94C713880F892F881F990B9D
:10082400919520916329222F30E0B9010E943D1354
:10083400CB019C01029FC001039F900D129F900D5C
:10084400112482A793A780916828882301F120E0CE
:100854003AE080E09AE0DC019696ED91FC9197975E
:1008640080916728882F90E044EF51E0BA010E94FC
:100874005113CB01AC01E49FC001E59F900DF49F9F
:10088400900D1124F90182A793A7109268288FE094
:1008940099E20E94890686E199E20E9489068DE127
:1008A40099E20E94890684E299E20E94890684E022
:1008B40090E0DC0112968C91882F90E08270992749
:1008C400892B79F4809126288E3159F489E197E5B2
:1008D4000E94380D8AE08093262887E198E20E94DE
:1008E400881380912628882361F580E491E0FC0137
:1008F4008085918520E431E0B9010E943D13892B64
:1009040001F5CE010E960E9488132091172830918C
:1009140018284091192850911A288E859F85A889F6
:10092400B989BC01CD010E94A414DC01CB0189303A
:100934009740A105B1052CF086E294E024E0DC01A7
:0C0944002C9385E090E00E94EF131FCC84
:10095000ABE0B0E0EEEAF4E00C9430126C017B0105
:100960008A01FC0116821782838181FFCCC1CE01EE
:1009700001963C01F6019381F70193FD859193FF68
:1009800081917F01882309F4BAC1853239F493FD3E
:10099000859193FF81917F01853229F4B60190E022
:1009A0000E94F50DE7CF912C212C312CFFE1F3159E
:1009B000D8F08B3279F038F4803279F08332A1F4B8
:1009C000232D20611DC08D3261F0803369F4232D09
:1009D000216016C0832D8260382EE32DE4603E2E08
:1009E0002AC0F32DF8601DC037FC2DC020ED280F64
:1009F0002A3040F08E32B9F436FC81C1232D2064B8
:100A0000322E19C036FE06C08AE0989E200D1124B1
:100A1000922E11C0EAE02E9E200D1124222EF32DDD
:100A2000F0623F2E08C08C3621F4832D8068382E6A
:100A300002C0883641F4F70193FD859193FF8191BF
:100A40007F018111B3CF982F9F7D9554933028F467
:100A50000C5F1F4F9FE399830DC0833631F08337BE
:100A600071F0833509F059C021C0F8018081898374
:100A70000E5F1F4F88248394912C530113C02801CB
:100A8000F2E04F0E511CF801A080B18036FE03C089
:100A9000692D70E002C06FEF7FEFC5010E94051461
:100AA0004C018201F32DFF773F2E16C0280122E072
:100AB000420E511CF801A080B18036FE03C0692DA2
:100AC00070E002C06FEF7FEFC5010E94FA134C0186
:100AD000F32DF0683F2E820133FC1BC0822D90E085
:100AE00088169906B0F4B60180E290E00E94F50DF8
:100AF0002A94F4CFF50137FC859137FE81915F018F
:100B0000B60190E00E94F50D21102A9421E0821A8E
:100B100091088114910471F7E8C0843611F0893688
:100B200041F5F80137FE07C06081718182819381B0
:100B30000C5F1F4F08C060817181072E000C880B6D
:100B4000990B0E5F1F4FF32DFF763F2E97FF09C0C5
:100B500090958095709561957F4F8F4F9F4FF0686E
:100B60003F2E2AE030E0A3010E94FA0B882E86185F
:100B700045C0853731F4232D2F7EB22E2AE030E098
:100B800025C0932D997FB92E8F36C1F018F4883582
:100B900079F0B5C0803719F0883721F0B0C0E92F5F
:100BA000E061BE2EB4FE0DC0FB2DF460BF2E09C067
:100BB00034FE0AC0292F2660B22E06C028E030E09D
:100BC00005C020E130E002C020E132E0F801B7FECC
:100BD00007C060817181828193810C5F1F4F06C0C5
:100BE0006081718180E090E00E5F1F4FA3010E9441
:100BF000FA0B882E8618FB2DFF773F2E36FE0DC090
:100C0000232D2E7FA22E891458F434FE0BC032FC03
:100C100009C0832D8E7EA82E05C0B82CA32C03C03E
:100C2000B82C01C0B92CA4FE0FC0FE01E80DF11DC7
:100C30008081803321F49A2D997EA92E09C0A2FECD
:100C400006C0B394B39404C08A2D867809F0B39497
:100C5000A3FC11C0A0FE06C0B21488F4280C922C8C
:100C60009B180EC0B21460F4B60180E290E00E94BE
:100C7000F50DB394F7CFB21418F42B1802C0982CCA
:100C8000212CA4FE10C0B60180E390E00E94F50D77
:100C9000A2FE17C0A1FC03C088E790E002C088E56F
:100CA00090E0B6010CC08A2D867859F0A1FE02C0F2
:100CB0008BE201C080E2A7FC8DE2B60190E00E94C9
:100CC000F50D891438F4B60180E390E00E94F50D2B
:100CD0009A94F7CF8A94F301E80DF11D8081B60153
:100CE00090E00E94F50D8110F5CF222009F442CE4C
:100CF000B60180E290E00E94F50D2A94F6CFF6014D
:100D00008681978102C08FEF9FEF2B96E2E10C94D2
:020D1000791256
:100D1200CF92DF92EF92FF92CF93DF93CDB7DEB700
:100D22002697CDBFDEBF8D839E838D819E81FC0180
:100D32008181882309F409C18D819E81FC01808112
:100D4200882349F486EA94E02D813E81F9012681C7
:100D5200FC01208309C18D819E81FC0122813381A6
:100D620080E491E0FC01808591852817390708F01D
:100D720073C08D819E81FC0124818D819E81FC0145
:100D82008581281709F068C087EA94E02D813E81A9
:100D9200F9012681FC0120838D819E81FC01148250
:100DA2008D819E81FC0124818D819E81FC012583A0
:100DB2008D819E81FC018281938189839A838D81B9
:100DC2009E81FC0182819381CC01A0E0B0E0BC0154
:100DD200CD010E94B80D6B017C018D819E81FC01C9
:100DE2008081882F90E0092E000CAA0BBB0BBC015E
:100DF200CD010E94BA0DDC01CB019C01AD0160E086
:100E020070E08AEF91E40E94B114DC01CB019C01F5
:100E1200AD01C701B6010E944D14DC01CB01BC013A
:100E2200CD010E94A30EDC01CB019C018D819E812C
:100E3200FC01228333838D819E81FC0122813381D7
:100E420089819A812817390708F08DC08D819E818A
:100E520021E0FC01248387C08D819E81FC012281D7
:100E6200338180E491E0FC018085918582179307AC
:100E720008F07AC08D819E81FC01948181E08927EE
:100E8200882309F471C08D819E81FC0185818823AC
:100E920009F46AC087EA94E02D813E81F901268136
:100EA200FC0120838D819E81FC01828193818B8351
:100EB2009C838D819E81FC0182819381CC01A0E083
:100EC200B0E0BC01CD010E94B80D6B017C018D81A7
:100ED2009E81FC018081882F90E0092E000CAA0BD4
:100EE200BB0BBC01CD010E94BA0DDC01CB019C0100
:100EF200AD0160E070E08AEF91E40E94B114DC0180
:100F0200CB019C01AD01C701B6010E944D14DC0169
:100F1200CB01BC01CD010E94A30EDC01CB019C01DF
:100F22008D819E81FC01228333838D819E81FC0110
:100F3200228133818B819C8128173907A8F48D8106
:100F42009E8121E0FC0124830FC085EA94E025EA1A
:100F520034E0F90140812D813E81F9012681242B63
:100F6200FC01208301C0000000002696CDBFDEBF39
:0E0F7200DF91CF91FF90EF90DF90CF90089528
:100F8000A8E0B0E0E6ECF7E00C943A128B01FC012B
:100F9000608171818281938120E831E541E050E0F8
:100FA0000E940F1169017A012CE330E040E050E02B
:100FB0000E94911229833A834B835C8389819A81B1
:100FC000AB81BC81F80160836CE370E00E94511337
:100FD000DC01CB01F801A1838283C601069667E09C
:100FE00070E00E943D1384832DEA3EE840E050E02B
:100FF000C701B6010E94911229833A836D837E83D3
:101000008F83988789819A8124E6289F6001299F90
:10101000D00C11246D817E818F81988525EB35E080
:1010200040E050E00E94911229833A836D837E83D1
:10103000E980FA80EE0CFF1CEE0CFF1CEC0CFD1C92
:101040008D819E81F5E6EF16F10410F0019604C043
:1010500024E6E216F10419F021E030E002C020E0BD
:1010600030E0A90144595E4F4817590768F46DE60E
:1010700071E0821B930B0E945113DC01CB01E80E3F
:10108000F91ECD0120E030E044E6E40EF11CF80149
:10109000E682F78280879187255C3F4F821793070E
:1010A00048F46FE170E00E945113DC01CB01F801BC
:1010B000858322C069E970E0821B930B0E94511363
:1010C000DC01CB01F82EFF0CFF0CF80E6DE370E095
:1010D000CD010E945113DC01CB01E82EEE0C6FE133
:1010E00070E0CD010E945113DC01CB0122E0280FFA
:1010F000F20EFE0CF801F582A383F8011286138626
:0E11000083818F5F83832896E8E00C9483122E
:10110E000F931F93CF93DF930E946C0E40E054E039
:10111E0087E0FA01808320E234E085E0F9018083E4
:10112E0080E494E069EFFC016083C0E6D4E060E8FF
:10113E006883A0E8B4E06FE06C9300EA14E0F80175
:10114E006083FA01148264E0F9016483FC01148265
:10115E001C8214961C92149770E4F8017483FA01A1
:10116E00108A118A128A138A148A158A168A178A85
:10117E00F901108A118A128A41E0438B448B158A39
:10118E00168A178AFC01108A118A128A138A148A07
:10119E00158A168A178A688B198A1A8A1B8A1C8ADC
:1011AE001D8A1E8A1F8A50961C92509751961C9229
:1011BE00519752961C92529753961C92539754964F
:1011CE001C92549755961C92559756961C9256976C
:1011DE0057961C92F801108A118A128A138A448B30
:1011EE008BE0858B168A178AE0EEF5E0118210826D
:1011FE0014821582138212828EEB94E18093412920
:10120E00909342298FEB94E180933F29909340294C
:10121E0080EC94E180933D2990933E2981EC94E1FA
:10122E0080933B2990933C2982EC94E18093392959
:10123E0090933A2983EC94E180933729909338293F
:10124E0084EC94E1809335299093362985EC94E1D2
:10125E00809333299093342986EC94E1809331293D
:10126E009093322987EC94E180932F299093302923
:0A127E00DF91CF911F910F910895A9
:10128800CF92DF92EF92FF92CF93DF93CDB7DEB785
:101298002697CDBFDEBF8B839C836D837E83CE0173
:1012A80005966AE976E50E946112FC018081882F23
:1012B80090E0C09721E0892B09F420E08B819C8184
:1012C800FC0121838D819E810E94B514282F8B817A
:1012D8009C81FC0120838B819C81FC018081882377
:1012E80009F454C00E949F1489839A8389819A8142
:1012F800CC01A0E0B0E0BC01CD010E94B80D6B01AB
:101308007C018B819C81FC018081882F90E0092ED3
:10131800000CAA0BBB0BBC01CD010E94BA0DDC016D
:10132800CB019C01AD0160E070E08AEF91E40E947E
:10133800B114DC01CB019C01AD01C701B6010E94CB
:101348004D14DC01CB01BC01CD010E94A30EDC01D0
:10135800CB019C018B819C81FC012283338387EA2A
:1013680094E02B813C81F9012681FC0120838B814B
:101378009C81FC012281338189819A812817390750
:1013880028F48B819C8121E0FC01248300002696AF
:10139800CDBFDEBFDF91CF91FF90EF90DF90CF9070
:0213A8000895A6
:1013AA00A0E0B0E0EBEDF9E00C943A128C01EB010D
:1013BA00FC018481682F660F680F8581582F550FAD
:1013CA00580F9E0140E0862F840F90E0A0E0885CD1
:1013DA009E4FAF4FFC018491A7FD8081F901819353
:1013EA009F01852F840F90E0A0E0825B9E4FAF4F54
:1013FA00FC018491A7FD8081F90183834F5F43300B
:10140A0011F780E28F838B83BE01685F7F4FF801FB
:10141A00838140E2082E000C990B0E946513BE01DD
:10142A00655F7F4FF80182814AE3082E000C990B11
:10143A000E946513BE01625F7F4FF80181814AE312
:10144A00082E000C990B0E946513BE016F5E7F4F38
:10145A00F801808140E2082E000C990B0E94651366
:10146A00F8018681978164E670E08459984F0E945A
:10147A0051136B017C01BE016C5E7F4F40E2C601D5
:10148A000E946513BE016A5E7F4F40E0C7010E9459
:0C149A006513CDB7DEB7E8E00C948312B8
:1014A60010C00E945A1458F00E94531440F029F4B8
:1014B6005F3F29F00C947B1451110C9462140C9428
:1014C600B9140E94ED1068F39923B1F3552391F3F3
:1014D600951B550BBB27AA2762177307840738F09D
:1014E6009F5F5F4F220F331F441FAA1FA9F335D0FA
:1014F6000E2E3AF0E0E832D091505040E695001CAE
:10150600CAF72BD0FE2F29D0660F771F881FBB1F67
:10151600261737074807AB07B0E809F0BB0B802D45
:10152600BF01FF2793585F4F3AF09E3F510578F071
:101536000C947B140C9462145F3FE4F3983ED4F34E
:10154600869577956795B795F7959F5FC9F7880F45
:10155600911D9695879597F90895E1E0660F771F97
:10156600881FBB1F621773078407BA0720F0621B28
:0E157600730B840BBA0BEE1F88F7E0950895F7
:10158400CF93DF93CDB7DEB70E94FE1282ED9EE0CB
:101594000E94951480E194E10E949A140E947514AB
:1015A4000E946F148AEC90E10E94901486EC91E101
:1015B4000E94861481EE91E10E948B1482E0809354
:1015C400152981E080931C2984E08093232988E0F5
:1015D40080932A298CE198E20E9488138CE198E296
:1015E4000E9468148093692890936A2880916928DE
:1015F40090916A28FC01828197E68902912D112439
:1016040095959595880F880BF92FF81B8F2F80934C
:1016140020288091692890916A28FC01928187E6AC
:101624009802812D1124282F25952595892F880F1F
:10163400880BF22FF81B8F2F880F282F220F220FD1
:10164400820F292F281B822F809321280000DF91ED
:04165400CF91089595
:1016580050575242544E5F534C45455000505752D4
:1016680042544E5F57414B455550004B6579535F87
:10167800413B31004B6579535F413B30004B657905
:10168800535F423B31004B6579535F423B30002545
:1016980064003B004B6579496E3B25780A000A4295
:1016A80075666665723A000A436F6D6D616E643ADD
:1016B800000A566172733A005365744E756D000ADC
:1016C8004275666665723A20005365745369676EA1
:1016D800616C005365744C45440053657454696DDE
:1016E80065005365744272466163005365745368BC
:1016F80074436F6D7000536574536C656570005367
:1017080065744163746976650047657454696D65ED
:0E1718000049474E5F53485554444F574E000A
:1017260011C00E94531438F00E945A1420F039F464
:101736009F3F19F426F40C94B9140EF4E095E7FBD8
:101746000C947B14E92F0E94ED1058F3BA17620728
:1017560073078407950720F079F4A6F50C946114B5
:101766000EF4E0950B2EBA2FA02D0B01B9019001B6
:101776000C01CA01A0011124FF27591B99F0593FFA
:1017860050F4503E68F11A16F040A22F232F342F42
:101796004427585FF3CF469537952795A795F04090
:1017A6005395C9F77EF41F16BA0B620B730B840BA5
:1017B600BAF09150A1F0FF0FBB1F661F771F881F5D
:1017C600C2F70EC0BA0F621F731F841F48F48795B5
:1017D60077956795B795F7959E3F08F0B0CF9395A7
:0E17E600880F08F09927EE0F979587950895C4
:1017F400FA01AA27283051F1203181F1E8946F933E
:101804006E7F6E5F7F4F8F4F9F4FAF4FB1E03ED0E3
:10181400B4E03CD0670F781F891F9A1FA11D680F81
:10182400791F8A1F911DA11D6A0F711D811D911DB4
:10183400A11D20D009F468943F912AE0269F112429
:101844003019305D3193DEF6CF010895462F47708D
:10185400405D4193B3E00FD0C9F7F6CF462F4F70E8
:10186400405D4A3318F0495D31FD4052419302D046
:10187400A9F7EACFB4E0A6959795879577956795EC
:10188400BA95C9F700976105710508959B01AC01EC
:101894000A2E06945795479537952795BA95C9F713
:0C18A400620F731F841F951FA01D089584
:1018B000CF93DF9300D000D0CDB7DEB78B839C836E
:1018C00019823CC00E9417128A838A81882F90E077
:1018D000292F2F938F9387E996E5892F8F9387E997
:1018E00096E58F930E94BE120F900F900F900F906D
:1018F0008A818A30A1F08A818D3089F0898191E0D6
:10190000980F9983882F90E02B813C81820F931F41
:101910002A81FC0120838981813408F019828A811F
:101920008A3061F48981882F90E02B813C81820F7D
:10193000931FFC011082198281E006C00E944514A9
:10194000882309F0BFCF80E02496CDBFDEBFDF91B2
:04195000CF91089596
:101954001F920F920FB60F9211242F933F934F9320
:101964005F936F937F938F939F93AF93BF93EF9303
:10197400FF93B99B05C0E0913B29F0913C2909955F
:10198400B89B05C0E0913929F0913A290995BB9B90
:1019940005C0E0913729F09138290995BA9B05C013
:1019A400E0913529F09136290995BD9B05C0E09158
:1019B4003329F091342909958FEF87BBFF91EF917B
:1019C400BF91AF919F918F917F916F915F914F9153
:0E19D4003F912F910F900FBE0F901F9018950E
:1019E2001F920F920FB60F9211242F933F934F9392
:1019F2005F936F937F938F939F93AF93BF93EF9375
:101A0200FF933B9B05C0E0914129F0914229099542
:101A12003A9B05C0E0913F29F091402909953C9BF2
:101A220005C0E0913D29F0913E290995399B05C0F9
:101A3200E0913129F09132290995389B05C0E09156
:101A42002F29F091302909958FEF87B9FF91EF91F6
:101A5200BF91AF919F918F917F916F915F914F91C4
:0E1A62003F912F910F900FBE0F901F9018957F
:101A7000EF92FF920F931F93CF93DF93E0916D2826
:101A8000F0916E28238121FF29C08C01D0E0C0E0B5
:101A90008BE6E82E88E2F82EF80181918F018823E9
:101AA00081F0D70112966D917C911397DB01189606
:101AB000ED91FC9119970995892B71F3DFEFCFEF29
:101AC000EBCF60916D2870916E28DB011896ED9137
:101AD000FC9119978AE00995892B19F08FEF9FEFF8
:101AE00002C08D2F9C2FCDB7DEB7E6E00C94851297
:101AF000A4E0B0E0EEE7FDE00C943A126C017B014B
:101B0000E0919F28F091A028309729F061E878E2D1
:101B100009958C0102C00FEF1FEFF6014081518142
:101B200062817381E1E8F8E280819181A281B381D1
:101B3000840F951FA61FB71F101611064CF4A8019D
:101B4000012E000C660B770B840F951FA61FB71F85
:101B500089839A83AB83BC83B701CE0101960E942F
:101B6000C007F701028713872496E8E00C948312DC
:101B7000E89409C097FB3EF4909580957095619527
:101B80007F4F8F4F9F4F9923A9F0F92F96E9BB27DD
:101B90009395F695879577956795B795F111F8CF59
:101BA000FAF4BB0F11F460FF1BC06F5F7F4F8F4FC4
:101BB0009F4F16C0882311F096E911C0772321F0BA
:101BC0009EE8872F762F05C0662371F096E8862F52
:101BD00070E060E02AF09A95660F771F881FDAF7A9
:0A1BE000880F9695879597F90895F0
:101BEA000F931F93CF93DF93FB01238121FD03C042
:101BFA008FEF9FEF2CC022FF16C0468157812481A8
:101C0A0035814217530744F4A081B1819D012F5FAA
:101C1A003F4F208331838C93268137812F5F3F4F3B
:101C2A002683378314C08B01EC01FB010084F18504
:101C3A00E02D0995892BE1F6D80116968D919C9194
:101C4A001797019616968D939C931797CE01DF915D
:081C5A00CF911F910F91089535
:101C62001F920F920FB60F9211242F933F934F930F
:101C72005F936F937F938F939F93AF93BF93EF93F2
:101C8200FF938091430180FF07C0E0915129F091B9
:101C92005229309709F009958091430181FF07C0CD
:101CA200E0914F29F0915029309709F0099583E08E
:101CB20080934301FF91EF91BF91AF919F918F91DB
:101CC2007F916F915F914F913F912F910F900FBE36
:061CD2000F901F90189511
:101CD800E0E9F4E0808188608193E83984E0F807DE
:101CE800C9F7E0EBF4E0808188608193E83B84E009
:101CF800F807C9F7E0E1F4E0808188608193E83172
:101D080084E0F807C9F7E0E3F4E080818860819314
:101D1800E83384E0F807C9F7E0E5F4E080818860FB
:101D28008193E83584E0F807C9F7E0E7F4E08081BB
:0E1D380088608193E83784E0F807C9F70895C2
:101D46000E94F51088F09F5798F0B92F9927B75140
:101D5600B0F0E1F0660F771F881F991F1AF0BA9549
:101D6600C9F714C0B13091F00E946114B1E0089532
:101D76000C946114672F782F8827B85F39F0B93F24
:101D8600CCF3869577956795B395D9F73EF49095FC
:0E1D96008095709561957F4F8F4F9F4F0895F8
:101DA400CF93DF93CDB7DEB70E94AA11809110299B
:101DB400809314298091172980931B2980911E29CF
:101DC4008093222980912529809329298091222892
:101DD40090912328A0912428B09125288F5F9F4FAC
:101DE400A109B1098093222890932328A093242841
:0C1DF400B09325280000DF91CF910895E6
:101E00001F920F920FB60F9211242F933F934F936F
:101E10005F936F937F938F939F93AF93BF93EF9352
:101E2000FF93E0914929F0914A29309709F00995EB
:101E300080E180930B0AFF91EF91BF91AF919F9149
:101E40008F917F916F915F914F913F912F910F9063
:081E50000FBE0F901F901895C2
:101E58001F920F920FB60F9211242F933F934F9317
:101E68005F936F937F938F939F93AF93BF93EF93FA
:101E7800FF93E0914729F0914829309709F0099597
:101E880080E280930B0AFF91EF91BF91AF919F91F0
:101E98008F917F916F915F914F913F912F910F900B
:081EA8000FBE0F901F9018956A
:101EB0001F920F920FB60F9211242F933F934F93BF
:101EC0005F936F937F938F939F93AF93BF93EF93A2
:101ED000FF93E0914529F0914629309709F0099543
:101EE00080E480930B0AFF91EF91BF91AF919F9196
:101EF0008F917F916F915F914F913F912F910F90B3
:081F00000FBE0F901F90189511
:101F08001F920F920FB60F9211242F933F934F9366
:101F18005F936F937F938F939F93AF93BF93EF9349
:101F2800FF93E0914329F0914429309709F00995EE
:101F380081E080930B0AFF91EF91BF91AF919F9140
:101F48008F917F916F915F914F913F912F910F905A
:081F58000FBE0F901F901895B9
:101F60001F920F920FB60F9211242F933F934F930E
:101F70005F936F937F938F939F93AF93BF93EF93F1
:101F8000FF93E0914B29F0914C29309709F0099586
:101F900082E080930B06FF91EF91BF91AF919F91EB
:101FA0008F917F916F915F914F913F912F910F9002
:081FB0000FBE0F901F90189561
:101FB8001F920F920FB60F9211242F933F934F93B6
:101FC8005F936F937F938F939F93AF93BF93EF9399
:101FD800FF93E0914D29F0914E29309709F009952A
:101FE80081E080935301FF91EF91BF91AF919F9151
:101FF8008F917F916F915F914F913F912F910F90AA
:082008000FBE0F901F90189508
:102010001F920F920FB60F9211242F933F934F935D
:102020005F936F937F938F939F93AF93BF93EF9340
:10203000FF93E0912D29F0912E29309709F0099511
:10204000FF91EF91BF91AF919F918F917F916F9190
:102050005F914F913F912F910F900FBE0F901F9066
:022060001895D1
:102062001F920F920FB60F9211242F933F934F930B
:102072005F936F937F938F939F93AF93BF93EF93EE
:10208200FF93E0912B29F0912C29309709F00995C3
:10209200FF91EF91BF91AF919F918F917F916F913E
:1020A2005F914F913F912F910F900FBE0F901F9014
:0220B20018957F
:1020B4001F93FC0199278827BC01E89411911032E1
:1020C400E9F3193010F01E30C8F31B3251F01D3201
:1020D40049F4689406C00E941313610F711D811D99
:1020E400911D119110531A30B0F33EF490958095E0
:0E20F400709561957F4F8F4F9F4F1F910895FC
:1021020040E068ED88E790E00E94A91440E068EDA5
:102112008CE790E00E94A91440E068ED80E790E02F
:102122000E94A91441E068ED81E690E00E94A914A2
:1021320040E068ED80E690E00E94A91440E068ED7E
:0C21420082E690E00E94A91480E008955D
:10214E00E0E2F8E08BE591E08087918780E9858376
:10215E0080EC868383E08783138614861686158625
:10216E0010925F291092602910925E2910925C29BC
:10217E0010925D2910925B2989EF98E280936D2869
:06218E0090936E280895F5
:10219400CF93DF93CDB7DEB7809126288E3129F413
:1021A40088E596E50E94380D12C080912628843176
:1021B40029F485E696E50E94380D09C08091262809
:1021C400882329F485E294E021E0FC0120830000C7
:0621D400DF91CF91089598
:1021DA0057FD9058440F551F59F05F3F71F04795CE
:1021EA00880F97FB991F61F09F3F79F087950895B3
:1021FA00121613061406551FF2CF4695F1DF08C0D2
:10220A00161617061806991FF1CF869571056105EE
:04221A000894089587
:10221E00A1E21A2EAA1BBB1BFD010DC0AA1FBB1FDC
:10222E00EE1FFF1FA217B307E407F50720F0A21B4E
:10223E00B30BE40BF50B661F771F881F991F1A94BB
:10224E0069F760957095809590959B01AC01BD01E5
:04225E00CF0108950F
:1022620080915B29882389F0E0915C29EF5FE77018
:10227200E0935C29F0E0E95FF64D808180932208CB
:1022820080915B29815080935B2980915B29811128
:0E22920005C0E0E2F8E085818F7D8583089528
:1022A00020915D292F5F277090915B299830E1F391
:1022B000E22FF0E0E95FF64D808320935D290FB6B1
:1022C000F8940F9280915B298F5F80935B290F9028
:0E22D0000FBEE0E2F8E085818062858308950C
:1022DE00E0E0FAE084EC94E080A791A782A793A7B0
:1022EE0084A795A710A211A223E321831282138241
:1022FE00148215821682178216861186128613860E
:0E230E0086A397A3178681E0808380E0089560
:10231C00E0E4F1E081818111FDCFE0E4F1E087EEB2
:10232C0093E084879587108611868FEC97E08287DF
:10233C00938781E0878393E09283808381898111E5
:08234C00FDCF1092520108952B
:102354008F938FB78F93F894809171288F5F8093B8
:102364007128809172288F4F8093722880917328EE
:102374008F4F80937328809174288F4F8093742893
:082384008F918FBF8F91089526
:10238C00CF93DF93CDB7DEB784E090E0FC01828180
:10239C00882F90E088709927892B29F083E796E5A0
:1023AC000E94380D04C08CE796E50E94380D0000A1
:0623BC00DF91CF910895AE
:1023C200CF93DF93CDB7DEB784E090E0FC0182814A
:1023D200882F90E080719927892B29F085E896E56E
:1023E2000E94380D04C08EE896E50E94380D000068
:0623F200DF91CF91089578
:1023F800ACE0B0E0E2E0F2E10C944012BE016F5FA5
:102408007F4F0E94780D6091592970915A29CE0109
:1024180001960E94D5098091592990915A292C96A4
:06242800E2E00C948912B1
:10242E0080915E298823E1F3E0915F29EF5FEF73DE
:10243E00E0935F290FB6F8940F9280915E29815038
:10244E0080935E290F900FBEF0E0EF55F74D80811F
:02245E000895DF
:102460002F923F924F925F926F927F928F929F92A4
:10247000AF92BF92CF92DF92EF92FF920F931F9392
:10248000CF93DF93CDB7DEB7CA1BDB0BCDBFDEBF6B
:022490000994AD
:102492008032910560F09C014AE64A95F1F700C04E
:1024A2002052310920323105B8F78F7199270097F0
:1024B20031F023E02A95F1F700000197D1F7089552
:1024C200FC01A081B181AD01109681F03D91FB012B
:1024D200019003160110E1F7C9F7002011F4D001B1
:1024E20002C01E921196FC01A083B183CA01089515
:1024F2002A88398848885F846E847D848C849B8492
:10250200AA84B984C884DF80EE80FD800C811B819F
:10251200AA81B981CE0FD11DCDBFDEBFED010895D5
:10252200052E97FB1EF400940E943D1457FD07D020
:102532000E940F1107FC03D04EF40C943D145095E9
:0E2542004095309521953F4F4F4F5F4F0895C4
:1025500090912008E0916029EF5FEF7380915F29EF
:10256000E81759F0E0936029F0E0EF55F74D9083BC
:0C25700080915E298F5F80935E290895A2
:10257C00A0E0B0E0E4ECF2E10C944012AE014B5F51
:10258C005F4FFA0161917191AF0180916D2890912B
:0C259C006E280E94A804E2E00C94891252
:1025A8001F920F920FB60F9211248F93EF93FF9300
:1025B800E0E2F8E0848180648483FF91EF918F9159
:0A25C8000F900FBE0F901F901895A2
:1025D200E0E0F6E081E0868B118290E19283138243
:1025E200148214861186128616828583148A158AAD
:0A25F200128A138A808380E00895A6
:1025FC000E9487080E94E3130E9435140E948110E8
:10260C000E942D140E94E9120E946F110E948E11DB
:0A261C000E94D6130E94A710089533
:10262600592F482F372F262F660F771F881F991F80
:10263600660F771F881F991F620F731F841F951FD0
:0A264600660F771F881F991F089583
:10265000ACE0B0E0EEE2F3E10C943E128B01BE017F
:102660006F5F7F4F0E94780DB801CE0101960E94E6
:0A267000D5092C96E4E00C948712C3
:10267A00AA1BBB1B51E107C0AA1FBB1FA617B7079E
:10268A0010F0A61BB70B881F991F5A95A9F78095BA
:08269A009095BC01CD010895EB
:1026A20097FB072E16F4009407D077FD09D00E94FD
:1026B2003D1307FC05D03EF4909581959F4F0895F8
:0826C200709561957F4F0895AA
:1026CA001F93CF93DF93EB01142F6AE070E00E940F
:1026DA005113605D6883805D89831A83DF91CF918E
:0426EA001F9108959F
:1026EE00092E0394000C11F4882352F0BB0F40F412
:1026FE00BF2B11F460FF04C06F5F7F4F8F4F9F4F52
:02270E0008952C
:10271000FC010FB6F894A1E7B8E26D917D918D911F
:102720009C910FBE309721F06083718382839383E5
:0227300008950A
:10273200E0E0F6E0868381E080870E94AD14882382
:10274200E1F3E0E0F6E08089918921E023870895B2
:102752001F920F920FB60F9211248F9381E08093F4
:0E2762000B068F910F900FBE0F901F901895D1
:102770001F920F920FB60F9211248F9381E08093D6
:0E2780008A008F910F900FBE0F901F9018953A
:10278E00A29FB001B39FC001A39F700D811D1124A4
:0E279E00911DB29F700D811D1124911D089593
:1027AC0040E068ED80E191E00E94A914E0E1F1E0E5
:0A27BC0012821382789480E00895E1
:1027C60040E068ED80E890E00E94A914E0E8F0E0BF
:0827D6001186108680E00895D1
:1027DE00009741F0E3ECF9E03197F1F700C000000B
:0627EE000197C1F70895F8
:1027F400FC010590615070400110D8F780959095C8
:062804008E0F9F1F0895D6
:10280A00FC016150704001900110D8F780959095B5
:06281A008E0F9F1F0895C0
:10282000CF93DF93CDB7DEB70E94AA110000DF91EE
:04283000CF910895A7
:102834000FB6F894E1E7F8E26083718382839383AF
:042844000FBE089526
:10284800FB01DC018D91019080190110D9F3990BDE
:022858000895E1
:10285A0040E068ED80E590E00E94A91480E00895C8
:10286A0040E068ED80E091E00E94A91480E00895BC
:10287A0090958095709561957F4F8F4F9F4F0895E2
:0E288A0090915E2981E0911101C080E00895D7
:0E2898005058BB27AA270E94930B0C9477136D
:0E28A60000240A94161617061806090608954F
:0E28B40000240A941216130614060506089551
:0E28C200E894BB2766277727CB0197F9089586
:0E28D00065E778E20E94780D85E798E20895AA
:0C28DE00E0E4F1E08281826082830895D2
:0C28EA00E0E4F1E08281816082830895C7
:0C28F60097F99F6780E870E060E00895AB
:0A2902000E94501180E090E008955B
:0A290C008093412990934229089519
:0A29160080933D2990933E29089517
:0A2920008093332990933429089521
:0A292A0080935129909352290895DB
:0A29340080934F29909350290895D5
:0A293E00809148019091490108952D
:0A294800621B730B840B950B0895BE
:08295200FC0164BF40830895FD
:08295A0080910B0681700895C5
:082962000E94530A0C94771344
:08296A000E945A10CB010895F0
:062972009FEF80EC0895C8
:042978000C940000BB
:02297C000895BC
:02297E000895BA
:022980000895B8
:022982000895B6
:022984000895B4
:022986000895B2
:022988000895B0
:02298A000895AE
:02298C000895AC
:02298E000895AA
:022990000895A8
:022992000895A6
:022994000895A4
:022996000895A2
:102998000A00000000000000000000000000000025
:0829A800000000000000000027
:0E29B000000000020000000081140000000082
:0729BE000000000000000210
:0729C500000000000000010A
:0729CC000000000000000400
:0729D30000000000000008F5
:0229DA003111B9
:0229DC00A8123F
:0229DE00CB1418
:0229E000CA1417
:0229E200C91416
:0229E400C81415
:0229E600E128E6
:0229E80027289E
:0229EA000528BE
:0229EC0085283C
:0129EE0001E7
:02000004008278
:090000000000020000C807000026
:00000001FF
