:100000000C946C000C94E9140C94E0130C943A0ECC
:100010000C94E50F0C94E9140C94E9140C948D0FD6
:100020000C94E9140C94090F0C94350F0C94610F87
:100030000C94E9140C94E9140C94E9140C94E9144C
:100040000C94E9140C94E9140C94E9140C94E9143C
:100050000C94E9140C94E9140C94D1130C94B90F7A
:100060000C94E9140C94E9140C9411100C943A10AB
:100070000C94FC120C94B30C0C94E9140C94E91439
:100080000C94E9140C94E9140C94FA0C0C94E914F3
:100090000C94E9140C94E9140C94E9140C94E914EC
:1000A0002800292180292129720029F22972298614
:1000B000802986298E002A43298E2996802996290F
:1000C0009E002A4B299E29A58029A529A600016703
:1000D00029A629A700157D0011241FBECFEFCDBF93
:1000E000DFE3DEBFE0EAF0E040E017C0B591A591A4
:1000F00035912591059107FD0CC095918591EF01F2
:10010000F92FE82F05900D92A217B307D9F7FE013A
:1001100004C01D92A217B307E1F7E73DF40731F7DA
:0C0120000E94B4000C949400F894FFCFEF
:10012C0053756E4D6F6E547565576564546875469E
:10013C007269536174004A616E4665624D61724129
:10014C0070724D61794A756E4A756C41756753656D
:0B015C00704F63744E6F7644656300C3
:010167000196
:10016800EF92FF920F931F93CF93DF93CDB7DEB734
:100178006297CDBFDEBF0E942E0B80910428882392
:1001880009F457C080E491E0DC0118964D915C9128
:10019800199780E491E0FC01828593859C01ABEA84
:1001A800BAEA0E94EF13969587954817590708F001
:1001B80040C08CE198E20E94B0138CE198E20E9462
:1001C80090148093692890936A2880916928909167
:1001D8006A28DC0112968C9197E68902912D1124E8
:1001E80095959595880F880BB92FB81B8B2F809301
:1001F80020288091692890916A28FC01928187E6DD
:100208009802812D1124282F25952595892F880F4F
:10021800880BF22FF81B8F2F880F282F220F220F01
:10022800820FE92EE81A8E2D809321281092042837
:100238005EC09091042881E08927882309F457C07B
:1002480080E491E0DC0118964D915C91199780E467
:1002580091E0FC01828593859C01ABEABAEA0E9491
:10026800EF13969587958417950708F040C08CE1A1
:1002780098E20E94B0138CE198E20E949014809357
:10028800692890936A288091692890916A28DC01EE
:1002980011968C9197E68902912D11249595959543
:1002A800880F880BB92FB81B8B2F8093202880913B
:1002B800692890916A28FC01918187E69802812D2E
:1002C8001124282F25952595892F880F880BF22F23
:1002D800F81B8F2F880F282F220F220F820FE92E4D
:1002E800E81A8E2D8093212881E0809304281982B2
:1002F8002EC08981823060F481E190E02981222F2B
:1003080030E0205E374DD9012C91FC01208311C0CB
:1003180081E190E040919629509197292981222FD7
:1003280030E022503109240F351FD9012C91FC01EE
:10033800208389E090E029812295207FDC012C939D
:100348008CEB92E00E94711289818F5F8983898189
:10035800803178F28091A4298F3008F460C080E45D
:1003680091E0FC01808591859C0140E050E08091FE
:10037800222890912328A0912428B091252879013A
:100388008A01E81AF90A0A0B1B0BD801C701409722
:10039800A105B1050CF443C0809196299091972945
:1003A8009C0181E299E28901081B190BC8018D8320
:1003B8008D81882321F481E08093A52907C080914D
:1003C800A4299D81981711F41092A5298091A52937
:1003D800882351F0809196299091972901968093CE
:1003E80096299093972909C08091962990919729E9
:1003F8000197809396299093972980E491E0DC01F6
:1004080018968D919C911997CC01A0E0B0E080934B
:10041800222890932328A0932428B09325288CE0A1
:1004280090E0FC018281882F90E082709927892BC7
:1004380009F185E694E020E8DC012C938EE090E059
:10044800FC018081882F90E08C7799279595879576
:1004580095958795292F2F938F9382EF94E5892F70
:100468008F9382EF94E58F930E94E6120F900F907E
:100478000F900F9080919829909199290E94610C72
:10048800882309F4BDC18CEF94E5892F8F938CEFF5
:1004980094E58F930E94E6120F900F90809198290F
:1004A80090919929292F2F938F930E94E6120F90EC
:1004B8000F9060EF74E588E999E20E9489128093B1
:1004C8009A2990939B2985E095E5892F8F9385E05C
:1004D80095E58F930E94E6120F900F9080919A29CC
:1004E80090919B29292F2F938F930E94E6120F90AA
:1004F8000F908FE095E5892F8F938FE095E58F9387
:100508000E94E6120F900F90809198299091992956
:10051800292F2F938F930E94E6120F900F908091AE
:100528009A2990919B2966E175E50E944C14892BC4
:1005380009F068C08DE195E5892F8F938DE195E5E8
:100548008F930E94E6120F900F90809198299091B6
:100558009929292F2F938F930E94E6120F900F90BD
:100568001A821B821C8242C02091982930919929B5
:100578008B819C81820F931FDC018C91882351F41D
:100588009A8181E08927882329F081E08A838B81F9
:100598008093A4298A81882341F08B819C818F5D77
:1005A800964D2AE0FC01208312C0209198293091B1
:1005B80099298B819C81820F931FDC018C9120EDFE
:1005C800280F8B819C818F5D964DFC0120832091A3
:1005D8009829309199298B819C81820F931FDC0186
:1005E8001C928B819C8101968B839C838B819C813F
:1005F80048970CF4B9CF81E299E2809396299093B9
:100608009729F6C080919A2990919B2967E275E510
:100618000E944C14892B61F4809198299091992912
:100628000E94E2148093672881E080936828E0C0E4
:1006380080919A2990919B2961E375E50E944C1459
:10064800892B09F044C060EF74E588E999E20E94BB
:100658008912FC018081882F90E08235910571F024
:100668008335910524F487349105E1F0C1C08335C1
:10067800910511F18935910559F0BAC080919829F1
:1006880090919929BC0182E599E20E943E09B0C087
:100698008091982990919929BC0189E599E20E9455
:1006A8003E09A6C08091982990919929BC0180E6BD
:1006B80099E20E943E099CC08091982990919929BD
:1006C800BC0187E699E20E943E09000091C0809132
:1006D8009A2990919B2968E375E50E944C14892B0F
:1006E80091F42091982930919929CE010796B90162
:1006F8000E9450138F819885A985BA85BC01CD01C8
:100708000E94421475C080919A2990919B2960E4B7
:1007180075E50E944C14892B49F480919829909191
:1007280099290E94E2148093A62962C080919A298F
:1007380090919B2969E475E50E944C14892B19F462
:100748001092262855C080919A2990919B2964E59A
:1007580075E50E944C14892B21F484E180932628A6
:1007680047C080919A2990919B296DE575E50E9473
:100778004C14892B21F48EE18093262839C080916E
:100788009A2990919B2967E675E50E944C14892B5C
:10079800B1F460EF74E588E999E20E948912DC01FE
:1007A8008C91813331F485E294E024E0FC012083CC
:1007B8001FC086E294E024E0DC012C9319C08091EC
:1007C8009A2990919B2965E775E50E944C14892B1D
:1007D80079F4CE010B960E94B013CE010B960E94BD
:1007E8002412292F2F938F930E94E6120F900F90B7
:1007F8001092272887E298E2809398299093992964
:1008080080E491E0FC01808591858F719927892B7F
:1008180081F580E00E94C1138093152890931628D3
:10082800E0E0FAE080E09AE0DC0196960D911C91F8
:10083800979780911528909116289C01A1E8B0E817
:100848000E94EF13880F892F881F990B919520918B
:10085800A629222F30E0B9010E946513CB019C0123
:10086800029FC001039F900D129F900D112480A735
:1008780091A7809168288823E1F0909167288DECF2
:10088800989F812D11248695869586958E8380E084
:100898009AE02E81222F30E0295B364DF901208124
:1008A800222F30E0DC019A962D933C939B9710926F
:1008B800682882E599E20E94830689E599E20E9408
:1008C800830680E699E20E94830687E699E20E9401
:1008D800830680912628882361F580E491E0FC0155
:1008E8008085918520E431E0B9010E946513892B48
:1008F80001F5CE010F960E94B01320911728309170
:1009080018284091192850911A288F859889A98903
:10091800BA89BC01CD010E94D114DC01CB01893018
:100928009740A105B1052CF086E294E024E0DC01B3
:0C0938002C9385E090E00E9417141FCC67
:10094400ABE0B0E0E8EAF4E00C9458126C017B01EF
:100954008A01FC0116821782838181FFCCC1CE01FA
:1009640001963C01F6019381F70193FD859193FF74
:1009740081917F01882309F4BAC1853239F493FD4A
:10098400859193FF81917F01853229F4B60190E02E
:100994000E94FE0DE7CF912C212C312CFFE1F315A1
:1009A400D8F08B3279F038F4803279F08332A1F4C4
:1009B400232D20611DC08D3261F0803369F4232D15
:1009C400216016C0832D8260382EE32DE4603E2E14
:1009D4002AC0F32DF8601DC037FC2DC020ED280F70
:1009E4002A3040F08E32B9F436FC81C1232D2064C4
:1009F400322E19C036FE06C08AE0989E200D1124BE
:100A0400922E11C0EAE02E9E200D1124222EF32DE9
:100A1400F0623F2E08C08C3621F4832D8068382E76
:100A240002C0883641F4F70193FD859193FF8191CB
:100A34007F018111B3CF982F9F7D9554933028F473
:100A44000C5F1F4F9FE399830DC0833631F08337CA
:100A540071F0833509F059C021C0F8018081898380
:100A64000E5F1F4F88248394912C530113C02801D7
:100A7400F2E04F0E511CF801A080B18036FE03C095
:100A8400692D70E002C06FEF7FEFC5010E942D1445
:100A94004C018201F32DFF773F2E16C0280122E07E
:100AA400420E511CF801A080B18036FE03C0692DAE
:100AB40070E002C06FEF7FEFC5010E9422144C0169
:100AC400F32DF0683F2E820133FC1BC0822D90E091
:100AD40088169906B0F4B60180E290E00E94FE0DFB
:100AE4002A94F4CFF50137FC859137FE81915F019B
:100AF400B60190E00E94FE0D21102A9421E0821A92
:100B040091088114910471F7E8C0843611F0893694
:100B140041F5F80137FE07C06081718182819381BC
:100B24000C5F1F4F08C060817181072E000C880B79
:100B3400990B0E5F1F4FF32DFF763F2E97FF09C0D1
:100B440090958095709561957F4F8F4F9F4FF0687A
:100B54003F2E2AE030E0A3010E94030C882E861861
:100B640045C0853731F4232D2F7EB22E2AE030E0A4
:100B740025C0932D997FB92E8F36C1F018F488358E
:100B840079F0B5C0803719F0883721F0B0C0E92F6B
:100B9400E061BE2EB4FE0DC0FB2DF460BF2E09C073
:100BA40034FE0AC0292F2660B22E06C028E030E0A9
:100BB40005C020E130E002C020E132E0F801B7FED8
:100BC40007C060817181828193810C5F1F4F06C0D1
:100BD4006081718180E090E00E5F1F4FA3010E944D
:100BE400030C882E8618FB2DFF773F2E36FE0DC092
:100BF400232D2E7FA22E891458F434FE0BC032FC10
:100C040009C0832D8E7EA82E05C0B82CA32C03C04A
:100C1400B82C01C0B92CA4FE0FC0FE01E80DF11DD3
:100C24008081803321F49A2D997EA92E09C0A2FED9
:100C340006C0B394B39404C08A2D867809F0B394A3
:100C4400A3FC11C0A0FE06C0B21488F4280C922C98
:100C54009B180EC0B21460F4B60180E290E00E94CA
:100C6400FE0DB394F7CFB21418F42B1802C0982CCD
:100C7400212CA4FE10C0B60180E390E00E94FE0D7A
:100C8400A2FE17C0A1FC03C088E790E002C088E57B
:100C940090E0B6010CC08A2D867859F0A1FE02C0FE
:100CA4008BE201C080E2A7FC8DE2B60190E00E94D5
:100CB400FE0D891438F4B60180E390E00E94FE0D25
:100CC4009A94F7CF8A94F301E80DF11D8081B6015F
:100CD40090E00E94FE0D8110F5CF222009F442CE4F
:100CE400B60180E290E00E94FE0D2A94F6CFF60150
:100CF4008681978102C08FEF9FEF2B96E2E10C94DF
:020D0400A1123A
:100D0600CF92DF92EF92FF92CF93DF93CDB7DEB70C
:100D16002697CDBFDEBF8D839E838D819E81FC018C
:100D26008181882309F409C18D819E81FC0180811E
:100D3600882349F486EA94E02D813E81F9012681D3
:100D4600FC01208309C18D819E81FC0122813381B2
:100D560080E491E0FC01808591852817390708F029
:100D660073C08D819E81FC0124818D819E81FC0151
:100D76008581281709F068C087EA94E02D813E81B5
:100D8600F9012681FC0120838D819E81FC0114825C
:100D96008D819E81FC0124818D819E81FC012583AC
:100DA6008D819E81FC018281938189839A838D81C5
:100DB6009E81FC0182819381CC01A0E0B0E0BC0160
:100DC600CD010E94C10D6B017C018D819E81FC01CC
:100DD6008081882F90E0092E000CAA0BBB0BBC016A
:100DE600CD010E94C30DDC01CB019C01AD0160E089
:100DF60070E08AEF91E40E94DE14DC01CB019C01D5
:100E0600AD01C701B6010E947514DC01CB01BC011E
:100E1600CD010E94AC0EDC01CB019C018D819E812F
:100E2600FC01228333838D819E81FC0122813381E3
:100E360089819A812817390708F08DC08D819E8196
:100E460021E0FC01248387C08D819E81FC012281E3
:100E5600338180E491E0FC018085918582179307B8
:100E660008F07AC08D819E81FC01948181E08927FA
:100E7600882309F471C08D819E81FC0185818823B8
:100E860009F46AC087EA94E02D813E81F901268142
:100E9600FC0120838D819E81FC01828193818B835D
:100EA6009C838D819E81FC0182819381CC01A0E08F
:100EB600B0E0BC01CD010E94C10D6B017C018D81AA
:100EC6009E81FC018081882F90E0092E000CAA0BE0
:100ED600BB0BBC01CD010E94C30DDC01CB019C0103
:100EE600AD0160E070E08AEF91E40E94DE14DC015F
:100EF600CB019C01AD01C701B6010E947514DC014E
:100F0600CB01BC01CD010E94AC0EDC01CB019C01E2
:100F16008D819E81FC01228333838D819E81FC011C
:100F2600228133818B819C8128173907A8F48D8112
:100F36009E8121E0FC0124830FC085EA94E025EA26
:100F460034E0F90140812D813E81F9012681242B6F
:100F5600FC01208301C0000000002696CDBFDEBF45
:0E0F6600DF91CF91FF90EF90DF90CF90089534
:100F7400A8E0B0E0E0ECF7E00C9462128B01FC0115
:100F8400608171818281938120E831E541E050E004
:100F94000E94181169017A012CE330E040E050E02E
:100FA4000E94B91229833A834B835C8389819A8195
:100FB400AB81BC81F80160836CE370E00E9479131B
:100FC400DC01CB01F801A1838283C601069667E0A8
:100FD40070E00E94651384832DEA3EE840E050E00F
:100FE400C701B6010E94B91229833A836D837E83B7
:100FF4008F83988789819A8124E6289F6001299F9D
:10100400D00C11246D817E818F81988525EB35E08C
:1010140040E050E00E94B91229833A836D837E83B5
:10102400E980FA80EE0CFF1CEE0CFF1CEC0CFD1C9E
:101034008D819E81F5E6EF16F10410F0019604C04F
:1010440024E6E216F10419F021E030E002C020E0C9
:1010540030E0A90144595E4F4817590768F46DE61A
:1010640071E0821B930B0E947913DC01CB01E80E23
:10107400F91ECD0120E030E044E6E40EF11CF80155
:10108400E682F78280879187255C3F4F821793071A
:1010940048F46FE170E00E947913DC01CB01F801A0
:1010A400858322C069E970E0821B930B0E94791347
:1010B400DC01CB01F82EFF0CFF0CF80E6DE370E0A1
:1010C400CD010E947913DC01CB01E82EEE0C6FE117
:1010D40070E0CD010E947913DC01CB0122E0280FDE
:1010E400F20EFE0CF801F582A383F8011286138632
:0E10F40083818F5F83832896E8E00C94AB1213
:101102000F931F93CF93DF930E94750E40E054E03C
:1011120087E0FA01808320E234E085E0F9018083F0
:1011220080E494E069EFFC016083C0E6D4E060E80B
:101132006883A0E8B4E06FE06C9300EA14E0F80181
:101142006083FA01148264E0F9016483FC01148271
:101152001C8214961C92149770E4F8017483FA01AD
:10116200108A118A128A138A148A158A168A178A91
:10117200F901108A41E0418B128A438B448B158A14
:10118200168A178AFC01108A118A128A138A148A13
:10119200158A168A178A688B198A1A8A1B8A1C8AE8
:1011A2001D8A1E8A1F8A50961C92509751961C9235
:1011B200519752961C92529753961C92539754965B
:1011C2001C92549755961C92559756961C92569778
:1011D20057961C92F801108A118A128A138A8BE0A0
:1011E200848B858B168A178AE0EEF5E011821082D5
:1011F20014821582138212828BEE94E180938429E9
:10120200909385298CEE94E180938229909383298F
:101212008DEE94E180938029909381298EEE94E162
:1012220080937E2990937F298FEE94E180937C298D
:1012320090937D2980EF94E180937A2990937B2982
:1012420081EF94E1809378299093792982EF94E158
:10125200809376299093772983EF94E18093742980
:101262009093752984EF94E1809372299093732966
:0A127200DF91CF911F910F910895B5
:10127C00CF92DF92EF92FF92CF93DF93CDB7DEB791
:10128C002697CDBFDEBF8B839C836D837E83CE017F
:10129C00059660EF74E50E948912FC018081882F0D
:1012AC0090E0C09721E0892B09F420E08B819C8190
:1012BC00FC0121838D819E810E94E214282F8B8159
:1012CC009C81FC0120838B819C81FC018081882383
:1012DC0009F454C00E94CC1489839A8389819A8121
:1012EC00CC01A0E0B0E0BC01CD010E94C10D6B01AE
:1012FC007C018B819C81FC018081882F90E0092EE0
:10130C00000CAA0BBB0BBC01CD010E94C30DDC0170
:10131C00CB019C01AD0160E070E08AEF91E40E948A
:10132C00DE14DC01CB019C01AD01C701B6010E94AA
:10133C007514DC01CB01BC01CD010E94AC0EDC01AB
:10134C00CB019C018B819C81FC012283338387EA36
:10135C0094E02B813C81F9012681FC0120838B8157
:10136C009C81FC012281338189819A81281739075C
:10137C0028F48B819C8121E0FC01248300002696BB
:10138C00CDBFDEBFDF91CF91FF90EF90DF90CF907C
:02139C000895B2
:10139E00A0E0B0E0E5EDF9E00C9462128C01EB01F7
:1013AE00FC018481682F660F680F8581582F550FB9
:1013BE00580F9E0140E0862F840F90E0A0E0845DE0
:1013CE009E4FAF4FFC018491A7FD8081F90181935F
:1013DE009F01852F840F90E0A0E08E5B9E4FAF4F54
:1013EE00FC018491A7FD8081F90183834F5F433017
:1013FE0011F780E28F838B83BE01685F7F4FF80108
:10140E00838140E2082E000C990B0E948D13BE01C1
:10141E00655F7F4FF80182814AE3082E000C990B1D
:10142E000E948D13BE01625F7F4FF80181814AE3F6
:10143E00082E000C990B0E948D13BE016F5E7F4F1C
:10144E00F801808140E2082E000C990B0E948D134A
:10145E00F8018681978164E670E08459984F0E9466
:10146E0079136B017C01BE016C5E7F4F40E2C601B9
:10147E000E948D13BE016A5E7F4F40E0C7010E943D
:0C148E008D13CDB7DEB7E8E00C94AB1274
:10149A0050575242544E5F534C4545500050575294
:1014AA0042544E5F57414B455550004B6579535F47
:1014BA00413B31004B6579535F413B30004B6579C5
:1014CA00535F423B31004B6579535F423B300049E1
:1014DA00474E5F534E533B310049474E5F534E537D
:1014EA003B30002564003B004B6579496E3B25780B
:1014FA000A000A4275666665723A000A436F6D6DA4
:10150A00616E643A000A566172733A005365744E0A
:10151A00756D000A4275666665723A2000536574F5
:10152A005369676E616C005365744C45440053659A
:10153A007454696D65005365744272466163005361
:10154A006574536874436F6D7000536574536C65AA
:10155A0065700053657441637469766500536574F8
:10156A0042636B436F6E765F454E004765745469FC
:03157A006D65009C
:01157D00016C
:10157E0010C00E94821458F00E947B1440F029F48F
:10158E005F3F29F00C94A31451110C948A140C94FF
:10159E00E6140E94F61068F39923B1F3552391F3E4
:1015AE00951B550BBB27AA2762177307840738F0C4
:1015BE009F5F5F4F220F331F441FAA1FA9F335D021
:1015CE000E2E3AF0E0E832D091505040E695001CD5
:1015DE00CAF72BD0FE2F29D0660F771F881FBB1F8F
:1015EE00261737074807AB07B0E809F0BB0B802D6D
:1015FE00BF01FF2793585F4F3AF09E3F510578F099
:10160E000C94A3140C948A145F3FE4F3983ED4F325
:10161E00869577956795B795F7959F5FC9F7880F6C
:10162E00911D9695879597F90895E1E0660F771FBE
:10163E00881FBB1F621773078407BA0720F0621B4F
:0E164E00730B840BBA0BEE1F88F7E09508951E
:10165C00CF93DF93CDB7DEB70E9426138BED9EE0C0
:10166C000E94C21488E394E10E94C7140E949D1446
:10167C000E94971483ED90E10E94BD148EEE91E1CF
:10168C000E94AE1489E092E10E94B31487E991E1C3
:10169C000E94B81482E08093582981E080935F29DE
:1016AC0084E08093662988E080936D298CE198E230
:1016BC000E94B0138CE198E20E94901480936928E8
:1016CC0090936A288091692890916A28FC01828104
:1016DC0097E68902912D112495959595880F880B85
:1016EC00F92FF81B8F2F80932028809169289091D7
:1016FC006A28FC01928187E69802812D1124282FFB
:10170C0025952595892F880F880BF22FF81B8F2F85
:10171C00880F282F220F220F820F292F281B822F90
:0C172C00809321280000DF91CF910895E8
:1017380011C00E947B1438F00E94821420F039F402
:101748009F3F19F426F40C94E6140EF4E095E7FB99
:101758000C94A314E92F0E94F61058F3BA176207E5
:1017680073078407950720F079F4A6F50C9489147B
:101778000EF4E0950B2EBA2FA02D0B01B9019001A4
:101788000C01CA01A0011124FF27591B99F0593FE8
:1017980050F4503E68F11A16F040A22F232F342F30
:1017A8004427585FF3CF469537952795A795F0407E
:1017B8005395C9F77EF41F16BA0B620B730B840B93
:1017C800BAF09150A1F0FF0FBB1F661F771F881F4B
:1017D800C2F70EC0BA0F621F731F841F48F48795A3
:1017E80077956795B795F7959E3F08F0B0CF939595
:0E17F800880F08F09927EE0F979587950895B2
:10180600FA01AA27283051F1203181F1E8946F932B
:101816006E7F6E5F7F4F8F4F9F4FAF4FB1E03ED0D1
:10182600B4E03CD0670F781F891F9A1FA11D680F6F
:10183600791F8A1F911DA11D6A0F711D811D911DA2
:10184600A11D20D009F468943F912AE0269F112417
:101856003019305D3193DEF6CF010895462F47707B
:10186600405D4193B3E00FD0C9F7F6CF462F4F70D6
:10187600405D4A3318F0495D31FD4052419302D034
:10188600A9F7EACFB4E0A6959795879577956795DA
:10189600BA95C9F700976105710508959B01AC01DA
:1018A6000A2E06945795479537952795BA95C9F701
:0C18B600620F731F841F951FA01D089572
:1018C200CF93DF9300D000D0CDB7DEB78B839C835C
:1018D20019823CC00E943F128A838A81882F90E03D
:1018E200292F2F938F938DEE94E5892F8F938DEE71
:1018F20094E58F930E94E6120F900F900F900F9035
:101902008A818A30A1F08A818D3089F0898191E0C3
:10191200980F9983882F90E02B813C81820F931F2F
:101922002A81FC0120838981813408F019828A810D
:101932008A3061F48981882F90E02B813C81820F6B
:10194200931FFC011082198281E006C00E946D146F
:10195200882309F0BFCF80E02496CDBFDEBFDF91A0
:04196200CF91089584
:101966001F920F920FB60F9211242F933F934F930E
:101976005F936F937F938F939F93AF93BF93EF93F1
:10198600FF93B99B05C0E0917E29F0917F290995C7
:10199600B89B05C0E0917C29F0917D290995BB9BF8
:1019A60005C0E0917A29F0917B290995BA9B05C07B
:1019B600E0917829F09179290995BC9B05C0E091C1
:1019C6007429F091752909958FEF87BBFF91EF91E7
:1019D600BF91AF919F918F917F916F915F914F9141
:0E19E6003F912F910F900FBE0F901F901895FC
:1019F4001F920F920FB60F9211242F933F934F9380
:101A04005F936F937F938F939F93AF93BF93EF9362
:101A1400FF933B9B05C0E0918429F09185290995AA
:101A24003A9B05C0E0918229F091832909953C9B5A
:101A340005C0E0918029F09181290995399B05C061
:101A4400E0917629F09177290995389B05C0E091BA
:101A54007229F091732909958FEF87B9FF91EF915E
:101A6400BF91AF919F918F917F916F915F914F91B2
:0E1A74003F912F910F900FBE0F901F9018956D
:101A8200EF92FF920F931F93CF93DF93E0916D2814
:101A9200F0916E28238121FF29C08C01D0E0C0E0A3
:101AA2008BE6E82E88E2F82EF80181918F018823D7
:101AB20081F0D70112966D917C911397DB011896F4
:101AC200ED91FC9119970995892B71F3DFEFCFEF17
:101AD200EBCF60916D2870916E28DB011896ED9125
:101AE200FC9119978AE00995892B19F08FEF9FEFE6
:101AF20002C08D2F9C2FCDB7DEB7E6E00C94AD125D
:101B0200A4E0B0E0E7E8FDE00C9462126C017B0116
:101B1200E0919F28F091A028309729F061E878E2BF
:101B220009958C0102C00FEF1FEFF6014081518130
:101B320062817381E1E8F8E280819181A281B381BF
:101B4200840F951FA61FB71F101611064CF4A8018B
:101B5200012E000C660B770B840F951FA61FB71F73
:101B620089839A83AB83BC83B701CE0101960E941D
:101B7200BA07F701028713872496E8E00C94AB12A8
:101B8200E89409C097FB3EF4909580957095619515
:101B92007F4F8F4F9F4F9923A9F0F92F96E9BB27CB
:101BA2009395F695879577956795B795F111F8CF47
:101BB200FAF4BB0F11F460FF1BC06F5F7F4F8F4FB2
:101BC2009F4F16C0882311F096E911C0772321F0A8
:101BD2009EE8872F762F05C0662371F096E8862F40
:101BE20070E060E02AF09A95660F771F881FDAF797
:0A1BF200880F9695879597F90895DE
:101BFC000F931F93CF93DF93FB01238121FD03C030
:101C0C008FEF9FEF2CC022FF16C046815781248195
:101C1C0035814217530744F4A081B1819D012F5F98
:101C2C003F4F208331838C93268137812F5F3F4F29
:101C3C002683378314C08B01EC01FB010084F185F2
:101C4C00E02D0995892BE1F6D80116968D919C9182
:101C5C001797019616968D939C931797CE01DF914B
:081C6C00CF911F910F91089523
:101C74001F920F920FB60F9211242F933F934F93FD
:101C84005F936F937F938F939F93AF93BF93EF93E0
:101C9400FF938091430180FF07C0E0919429F09164
:101CA4009529309709F009958091430181FF07C078
:101CB400E0919229F0919329309709F0099583E0F6
:101CC40080934301FF91EF91BF91AF919F918F91C9
:101CD4007F916F915F914F913F912F910F900FBE24
:061CE4000F901F901895FF
:101CEA00E0E9F4E0808188608193E83984E0F807CC
:101CFA00C9F7E0EBF4E0808188608193E83B84E0F7
:101D0A00F807C9F7E0E1F4E0808188608193E8315F
:101D1A0084E0F807C9F7E0E3F4E080818860819302
:101D2A00E83384E0F807C9F7E0E5F4E080818860E9
:101D3A008193E83584E0F807C9F7E0E7F4E08081A9
:0E1D4A0088608193E83784E0F807C9F70895B0
:101D58000E94FE1088F09F5798F0B92F9927B75125
:101D6800B0F0E1F0660F771F881F991F1AF0BA9537
:101D7800C9F714C0B13091F00E948914B1E00895F8
:101D88000C948914672F782F8827B85F39F0B93FEA
:101D9800CCF3869577956795B395D9F73EF49095EA
:0E1DA8008095709561957F4F8F4F9F4F0895E6
:101DB600CF93DF93CDB7DEB70E94D211809153291E
:101DC6008093572980915A2980935E2980916129B1
:101DD600809365298091682980936C2980912228B7
:101DE60090912328A0912428B09125288F5F9F4F9A
:101DF600A109B1098093222890932328A09324282F
:0C1E0600B09325280000DF91CF910895D3
:101E12001F920F920FB60F9211242F933F934F935D
:101E22005F936F937F938F939F93AF93BF93EF9340
:101E3200FF93E0918C29F0918D29309709F0099553
:101E420080E180930B0AFF91EF91BF91AF919F9137
:101E52008F917F916F915F914F913F912F910F9051
:081E62000FBE0F901F901895B0
:101E6A001F920F920FB60F9211242F933F934F9305
:101E7A005F936F937F938F939F93AF93BF93EF93E8
:101E8A00FF93E0918A29F0918B29309709F00995FF
:101E9A0080E280930B0AFF91EF91BF91AF919F91DE
:101EAA008F917F916F915F914F913F912F910F90F9
:081EBA000FBE0F901F90189558
:101EC2001F920F920FB60F9211242F933F934F93AD
:101ED2005F936F937F938F939F93AF93BF93EF9390
:101EE200FF93E0918829F0918929309709F00995AB
:101EF20080E480930B0AFF91EF91BF91AF919F9184
:101F02008F917F916F915F914F913F912F910F90A0
:081F12000FBE0F901F901895FF
:101F1A001F920F920FB60F9211242F933F934F9354
:101F2A005F936F937F938F939F93AF93BF93EF9337
:101F3A00FF93E0918629F0918729309709F0099556
:101F4A0081E080930B0AFF91EF91BF91AF919F912E
:101F5A008F917F916F915F914F913F912F910F9048
:081F6A000FBE0F901F901895A7
:101F72001F920F920FB60F9211242F933F934F93FC
:101F82005F936F937F938F939F93AF93BF93EF93DF
:101F9200FF93E0918E29F0918F29309709F00995EE
:101FA20082E080930B06FF91EF91BF91AF919F91D9
:101FB2008F917F916F915F914F913F912F910F90F0
:081FC2000FBE0F901F9018954F
:101FCA001F920F920FB60F9211242F933F934F93A4
:101FDA005F936F937F938F939F93AF93BF93EF9387
:101FEA00FF93E0919029F0919129309709F0099592
:101FFA0081E080935301FF91EF91BF91AF919F913F
:10200A008F917F916F915F914F913F912F910F9097
:08201A000FBE0F901F901895F6
:102022001F920F920FB60F9211242F933F934F934B
:102032005F936F937F938F939F93AF93BF93EF932E
:10204200FF93E0917029F0917129309709F0099579
:10205200FF91EF91BF91AF919F918F917F916F917E
:102062005F914F913F912F910F900FBE0F901F9054
:022072001895BF
:102074001F920F920FB60F9211242F933F934F93F9
:102084005F936F937F938F939F93AF93BF93EF93DC
:10209400FF93E0916E29F0916F29309709F009952B
:1020A400FF91EF91BF91AF919F918F917F916F912C
:1020B4005F914F913F912F910F900FBE0F901F9002
:0220C40018956D
:1020C6001F93FC0199278827BC01E89411911032CF
:1020D600E9F3193010F01E30C8F31B3251F01D32EF
:1020E60049F4689406C00E943B13610F711D811D5F
:1020F600911D119110531A30B0F33EF490958095CE
:0E210600709561957F4F8F4F9F4F1F910895E9
:1021140040E068ED88E790E00E94D61440E068ED66
:102124008CE790E00E94D61440E068ED80E790E0F0
:102134000E94D61441E068ED81E690E00E94D61436
:1021440040E068ED80E690E00E94D61440E068ED3F
:0C21540082E690E00E94D61480E008951E
:10216000E0E2F8E08BE591E08087918780E9858364
:1021700080EC868383E08783138614861686158613
:102180001092A2291092A3291092A12910929F299E
:102190001092A02910929E2989E399E280936D28DC
:0621A00090936E280895E3
:1021A600CF93DF93CDB7DEB7809126288E3129F401
:1021B6008AE994E50E94410D12C080912628843157
:1021C60029F487EA94E50E94410D09C080912628EA
:1021D600882329F485E294E021E0FC0120830000B5
:0621E600DF91CF91089586
:1021EC0057FD9058440F551F59F05F3F71F04795BC
:1021FC00880F97FB991F61F09F3F79F087950895A1
:10220C00121613061406551FF2CF4695F1DF08C0BF
:10221C00161617061806991FF1CF869571056105DC
:04222C000894089575
:10223000A1E21A2EAA1BBB1BFD010DC0AA1FBB1FCA
:10224000EE1FFF1FA217B307E407F50720F0A21B3C
:10225000B30BE40BF50B661F771F881F991F1A94A9
:1022600069F760957095809590959B01AC01BD01D3
:04227000CF010895FD
:1022740080919E29882389F0E0919F29EF5FEF7375
:10228400E0939F29F0E0EF55F74D80818093220879
:1022940080919E29815080939E2980919E2981114D
:0E22A40005C0E0E2F8E085818F7D8583089516
:1022B2002091A0292F5F2F7390919E299034E1F3F2
:1022C200E22FF0E0EF55F74D80832093A0290FB65F
:1022D200F8940F9280919E298F5F80939E290F9090
:0E22E2000FBEE0E2F8E08581806285830895FA
:1022F000E0E0FAE084E690E080A791A782A793A7A8
:1023000084A795A710A211A223E32183128213822E
:1023100014821582168217821686118612861386FB
:0E23200086A397A3178681E0808380E008954E
:10232E00CF93DF93CDB7DEB784E090E0FC018281DE
:10233E00882F90E082709927892B29F089ED94E5FA
:10234E000E94410D08C083EE94E50E94410D87E185
:0E235E0098E20E94B0130000DF91CF91089525
:10236C00E0E4F1E081818111FDCFE0E4F1E087EE62
:10237C0093E084879587108611868FEC97E082878F
:10238C00938781E0878393E0928380838189811195
:08239C00FDCF109252010895DB
:1023A4008F938FB78F93F894809171288F5F809368
:1023B4007128809172288F4F80937228809173289E
:1023C4008F4F80937328809174288F4F8093742843
:0823D4008F918FBF8F910895D6
:1023DC00CF93DF93CDB7DEB784E090E0FC01828130
:1023EC00882F90E088709927892B29F085EB94E54C
:1023FC000E94410D04C08EEB94E50E94410D00003B
:06240C00DF91CF9108955D
:10241200CF93DF93CDB7DEB784E090E0FC018281F9
:10242200882F90E080719927892B29F087EC94E519
:102432000E94410D04C080ED94E50E94410D000010
:06244200DF91CF91089527
:10244800ACE0B0E0EAE2F2E10C946812BE016F5F22
:102458007F4F0E94810D60919C2970919D29CE012A
:1024680001960E94CF0980919C2990919D292C96D4
:06247800E2E00C94B11239
:10247E008091A1298823E1F3E091A229EF5FEF7308
:10248E00E093A2290FB6F8940F928091A129815062
:10249E008093A1290F900FBEF0E0EF51F74D808190
:0224AE0008958F
:1024B0002F923F924F925F926F927F928F929F9254
:1024C000AF92BF92CF92DF92EF92FF920F931F9342
:1024D000CF93DF93CDB7DEB7CA1BDB0BCDBFDEBF1B
:0224E00009945D
:1024E2008032910560F09C014AE64A95F1F700C0FE
:1024F2002052310920323105B8F78F7199270097A0
:1025020031F023E02A95F1F700000197D1F7089501
:10251200FC01A081B181AD01109681F03D91FB01DA
:10252200019003160110E1F7C9F7002011F4D00160
:1025320002C01E921196FC01A083B183CA010895C4
:102542002A88398848885F846E847D848C849B8441
:10255200AA84B984C884DF80EE80FD800C811B814F
:10256200AA81B981CE0FD11DCDBFDEBFED01089585
:10257200052E97FB1EF400940E94651457FD07D0A8
:102582000E94181107FC03D04EF40C946514509568
:0E2592004095309521953F4F4F4F5F4F089574
:1025A00090912008E091A329EF5FEF738091A22919
:1025B000E81759F0E093A329F0E0EF51F74D90832D
:0C25C0008091A1298F5F8093A1290895CC
:1025CC00A0E0B0E0ECEEF2E10C946812AE014B5FCF
:1025DC005F4FFA0161917191AF0180916D289091DB
:0C25EC006E280E94A204E2E00C94B112E0
:1025F8001F920F920FB60F9211248F93EF93FF93B0
:10260800E0E2F8E0848180648483FF91EF918F9108
:0A2618000F900FBE0F901F90189551
:10262200E0E0F6E081E0868B118290E192831382F2
:10263200148214861186128616828583148A158A5C
:0A264200128A138A808380E0089555
:10264C000E9481080E940B140E945D140E948A1043
:10265C000E9455140E9411130E9478110E94B61109
:0A266C000E94FE130E94B0100895B2
:10267600592F482F372F262F660F771F881F991F30
:10268600660F771F881F991F620F731F841F951F80
:0A269600660F771F881F991F089533
:1026A000ACE0B0E0E6E5F3E10C9466128B01BE010C
:1026B0006F5F7F4F0E94810DB801CE0101960E948D
:0A26C000CF092C96E4E00C94AF1251
:1026CA00AA1BBB1B51E107C0AA1FBB1FA617B7074E
:1026DA0010F0A61BB70B881F991F5A95A9F780956A
:0826EA009095BC01CD0108959B
:1026F20097FB072E16F4009407D077FD09D00E94AD
:10270200651307FC05D03EF4909581959F4F08957F
:08271200709561957F4F089559
:10271A001F93CF93DF93EB01142F6AE070E00E94BE
:10272A007913605D6883805D89831A83DF91CF9115
:04273A001F9108954E
:10273E00092E0394000C11F4882352F0BB0F40F4C1
:10274E00BF2B11F460FF04C06F5F7F4F8F4F9F4F01
:02275E000895DC
:10276000FC010FB6F894A1E7B8E26D917D918D91CF
:102770009C910FBE309721F0608371838283938395
:022780000895BA
:10278200E0E0F6E0868381E080870E94DA14882305
:10279200E1F3E0E0F6E08089918921E02387089562
:1027A2001F920F920FB60F9211248F9381E08093A4
:0E27B2000B068F910F900FBE0F901F90189581
:1027C0001F920F920FB60F9211248F9381E0809386
:0E27D0008A008F910F900FBE0F901F901895EA
:1027DE00A29FB001B39FC001A39F700D811D112454
:0E27EE00911DB29F700D811D1124911D089543
:1027FC0040E068ED80E191E00E94D614E0E1F1E068
:0A280C0012821382789480E0089590
:1028160040E068ED80E890E00E94D614E0E8F0E041
:082826001186108680E0089580
:10282E00009741F0E3ECF9E03197F1F700C00000BA
:06283E000197C1F70895A7
:10284400FC010590615070400110D8F78095909577
:062854008E0F9F1F089586
:10285A00FC016150704001900110D8F78095909565
:06286A008E0F9F1F089570
:10287000CF93DF93CDB7DEB70E94D2110000DF9176
:04288000CF91089557
:102884000FB6F894E1E7F8E260837183828393835F
:042894000FBE0895D6
:10289800FB01DC018D91019080190110D9F3990B8E
:0228A800089591
:1028AA0040E068ED80E590E00E94D61480E008954B
:1028BA0040E068ED80E091E00E94D61480E008953F
:1028CA0090958095709561957F4F8F4F9F4F089592
:0E28DA009091A12981E0911101C080E0089544
:0E28E8005058BB27AA270E949C0B0C949F13EC
:0E28F60000240A9416161706180609060895FF
:0E29040000240A941216130614060506089500
:0E291200E894BB2766277727CB0197F9089535
:0E29200065E778E20E94810D85E798E2089550
:0C292E00E0E4F1E0828182608283089581
:0C293A00E0E4F1E0828181608283089576
:0C29460097F99F6780E870E060E008955A
:0A2952000E94591180E090E0089502
:0A295C008093842990938529089543
:0A2966008093802990938129089541
:0A297000809376299093772908954B
:0A297A008093742990937529089545
:0A29840080939429909395290895FB
:0A298E0080939229909393290895F5
:0A29980080914801909149010895D3
:0A29A200621B730B840B950B089564
:0829AC00FC0164BF40830895A3
:0829B40080910B06817008956B
:0829BC000E94BF0A0C949F1356
:0829C4000E946310CB0108958D
:0629CC009FEF80EC08956E
:0429D2000C94000061
:0229D600089562
:0229D800089560
:0229DA0008955E
:0229DC0008955C
:0229DE0008955A
:0229E000089558
:0229E200089556
:0229E400089554
:0229E600089552
:0229E800089550
:0229EA0008954E
:0229EC0008954C
:0229EE0008954A
:0229F000089548
:1029F2000A000000000000000000000000000000CB
:082A02000000000000000000CC
:0E2A0A000000000200000000A91400000000FF
:0B2A18000004080C121B232D3C50642E
:072A230000000000000002AA
:072A2A0000000000000001A4
:072A3100000000000000049A
:072A3800000000000000088F
:022A3F003A114A
:022A4100D012B1
:022A4300F81485
:022A4500F71484
:022A4700F61483
:022A4900F51482
:022A4B0021293F
:022A4D00272838
:022A4F00052858
:022A51008528D6
:02000004008278
:090000000000020000C807000026
:00000001FF
